:020000040800F2
:1000000068120020F1310008993100089B31000886
:100010009D3100089F310008A13100080000000058
:10002000000000000000000000000000A3310008F4
:10003000A531000800000000A7310008A931000820
:100040002132000825320008293200082D3200082C
:100050003132000835320008393200083D320008DC
:100060004132000845320008493200084D3200088C
:100070005132000855320008593200085D3200083C
:100080006132000865320008693200086D320008EC
:100090007132000875320008793200087D3200089C
:1000A0008132000885320008893200088D3200084C
:1000B000AB31000895320008993200089D320008E3
:1000C000A1320008A5320008A9320008AD320008AC
:1000D000B1320008B5320008B9320008BD3200085C
:1000E000C1320008C5320008C93200080000000013
:1000F0000000000000000000000000000000000000
:100100000000000000000000CD320008D1320008DD
:10011000D5320008D9320008DD320008E13200088B
:10012000E5320008E9320008ED320008F13200083B
:10013000F5320008F9320008FD32000801330008EA
:1001400005330008093300080D330008AD310008FD
:100150002DE9F04FA1B0804617461D46029102AE30
:100160000020706211AC6FF000490AE017F8011B23
:100170000298C0470290002800F07C82706A401C00
:100180007062387808B9706A76E22528EED10020CE
:10019000F06030617061B061F061306201E040F0A8
:1001A000010017F8011F2029F9D023290ED02B298F
:1001B00004D02D2906D030290CD00FE040F00200E9
:1001C00080B2EEE740F0040080B2EAE740F00800B9
:1001D00080B2E6E740F0100080B2E2E72A290DD1B4
:1001E00029680A1D2A600968F162002904D549427C
:1001F000F16240F0040080B27F1C11E00021F16246
:1002000009E0F16A494505D001EB810302EB4301A6
:100210003039F1627F1C3A78A2F130010A29F0D31B
:1002200039782E291CBF4FF0FF31B1621CD117F86D
:10023000011F2A2906D129680A1D2A600968B162AE
:100240007F1C11E00021B16209E0B16A494505D087
:1002500001EB810302EB43013039B1627F1C3A7834
:10026000A2F130010A29F0D3308639780FF6E43054
:1002700000F014FE08B117F8010B8DF83A009DF854
:100280003A00682804D1387868280AD1622005E04D
:100290006C2804BF38786C2803D171208DF83A009F
:1002A0007F1C11A8B0603A781046253825D01C383C
:1002B00075D0001F022872D9133800F09C800938CD
:1002C0006DD0801E00F03781401E00F0DD80401EA2
:1002D000022864D9001F00F0D780401F34D0401E90
:1002E00000F08980401E24D0C01E0CD0801E00F07B
:1002F0008280C01E00F07F8026E1F068411CF16022
:10030000252101552AE12868011D296000687060D7
:10031000B26A002A03D500F0DDFD30611EE1002144
:1003200000F0F4FD00281ABF7168401AB06A30610D
:1003300014E12868011D296000680021CDE9000151
:1003400011A870607821F2E09DF83A00622818D078
:10035000682806D06A280BD06C2819D0712807D0DD
:1003600016E02868011D2960716A00680180F5E0C7
:100370002A68101D2860706AC1171268C2E900015E
:10038000ECE02868011D2960716A00680170E5E0F1
:100390002868011D2960716A00680160DEE0286834
:1003A000C01D20F007002860034603F10800286004
:1003B000D3E90001CDE90001002904D5F068411C12
:1003C000F1602D210DE0308E810704D5F068411CCD
:1003D000F1602B2105E0C00704D5F068411CF160F5
:1003E00020210155F06811A940187060114600A83D
:1003F00000F0D8F9B2E09DF83A306C2B08BF2868BD
:1004000011D0712B08BF286802D06A2B28680AD146
:10041000C01D20F00700286084460CF10800286009
:10042000DCE9000103E0011D296000680021CDE93D
:100430000001682B04BFDDE9000180B20BD0622B04
:1004400004BFDDE90001C0B205D0742B18BF7A2BC0
:1004500004D1DDE900010021CDE9000196F830006A
:1004600000075FD5DDE90001002908BF002859D049
:1004700042F02000782855D1F06830210155401C09
:10048000411CF16002554DE09DF83A0062280CD005
:10049000682810D06A281AD06C2824D0712816D069
:1004A000742820D07A280CD01DE02868011D29600E
:1004B00090F900001BE02868011D2960B0F90000D8
:1004C00015E02868011D29600068002110E02868F7
:1004D000C01D20F007002860034603F108002860D3
:1004E000D3E9000104E02868011D29600068C117F4
:1004F000CDE90001DDE90001002904DAF068411CC2
:10050000F1602D210DE0308E810704D5F068411C8B
:10051000F1602B2105E0C00704D5F068411CF160B3
:1005200020210155F06811A940187060114600A8FB
:1005300000F0A5F812E0F068411CF16029680A1D7E
:100540002A600968015509E0F068411CF160252125
:1005500001551AB1F068411CF16002557F1CF06A28
:10056000F168401AB169401A3169401AF169401ABC
:100570007169401A316AA0EB010A96F83000400711
:1005800011D420208DF84000BAF1010F0BDBD346C7
:10059000012310AA00A9404600F044FC002869D1BC
:1005A000BBF1010BF4D1F36811AA00A9404600F099
:1005B00039FC00285ED130208DF84000D6F818B004
:1005C000BBF1010F0ADB012310AA00A9404600F08D
:1005D00029FC00284ED1BBF1010BF4D133697268BC
:1005E00000A9404600F01EFC002843D130208DF8C1
:1005F0004000D6F81CB0BBF1010F09DB012310AAA3
:1006000000A9404600F00EFCA0BBBBF1010BF5D1E8
:10061000736930697168421800A9404600F002FC15
:1006200040BB30208DF84000D6F820B0BBF1010F60
:1006300009DB012310AA00A9404600F0F3FBC8B96A
:10064000BBF1010BF5D196F8300040077FF599AD6D
:1006500020208DF84000BAF1010FFFF692AD012382
:1006600010AA00A9404600F0DDFB18B9BAF1010A52
:10067000F5D186E54FF0FF3021B0BDE8F08F2DE9D0
:10068000FA4B86B005462F696F2908BF082605D0AA
:1006900041F02000782814BF0A2610263C24D5E912
:1006A000000181468B469DF81820642A18BF692AEC
:1006B00005D1002903DAD9F100096BEB4B0BBBF133
:1006C000000F08BFB9F1000F0CD1286B50B9082EEC
:1006D00044D195F83800000740D53B24302087F8F6
:1006E0003B003BE0A4F101084446F017CDE904606B
:1006F00048465946DDE9042300F034FCCDE9020107
:10070000CDE9009BDDE90223DDE90401A0FB029BAA
:10071000DDE90001A0EB09003030C0B23A2803D374
:100720009DF818105139081808F80700DDE9029BF8
:10073000BBF1000F08BFB9F1000F03D0E868E11961
:100740008842CFD3082E09D195F83800000705D587
:10075000E05D302802D0641E3020E055C4F13C003A
:10076000A861E119E960296B884207DA081A286252
:10077000288F4FF6EF710840288710E000290ED52A
:1007800095F8381001F01401102908D1696B6A69D5
:10079000891A2A6A891A0C1A012CA8BF2C6208B07F
:1007A000BDE8F08B2DE9F24F8EB0054604AFD5E9D8
:1007B0000001CDE902019DF8380040F020008DF8DD
:1007C000000061280BD0286B002848BF062005D404
:1007D00004BF9DF80000672801D1012028636968E3
:1007E000C1F30A5040F2FF7398421CD1080304BFC2
:1007F0002868002809D10320A8619DF838006138D5
:100800001A2837D30FF2606108E00320A8619DF831
:10081000380061381A282AD30FF244610322E868AD
:1008200000F018FCBBE1010017D1284600F04DFC98
:10083000012812DB002400209DF80010612920D13E
:10084000E968302201F8012B4A1CEA609DF8382043
:10085000612A0CBF782258220FE040F2FE316A680C
:1008600061F31E526A60441A4FF0FF30E4E70FF262
:10087000EC51D3E70FF2EC51D0E70A706969891C9B
:10088000696110B90026B0467FE19DF8000061283B
:1008900040F09780286B00284CBF2126461C36B2BA
:1008A000771CD5E900ABDDE902010022002300F04E
:1008B0002FFC3ABF8BF00040CDE902A0CDE902AB9E
:1008C000A4F104088DF810200DF11109012F33DB7C
:1008D000DDE902010022002300F032FC2CD21C21B1
:1008E00002A800F045FCDDE9020100F0CFFC04465F
:1008F000FF1F012F09DB00F0F5FC02460B46DDE986
:10090000020100F007FDCDE9020109F2070007210D
:1009100004E004F00F0200F8012D2411012C01DB8A
:10092000491EF6D5491E5CBF002200F8012DF9D5FD
:1009300000F20709012FCBDA0DF11100A9EB00013C
:100940000DF11107B142B8BF0E4636B2002E31D4B8
:100950003046884206DA04A941184978082928BF98
:100960000F2100D2002104AA821800E0761E401E4A
:1009700012F801398B42F9D00F2904D104A941188A
:100980004A78521C4A70002803D504AF761C08F13F
:10099000040836B2701E0DD4C1190A783032D2B2B2
:1009A0003A2A03D39DF838303A3B9A1801F80129C6
:1009B000401EF2D5286B002840F1E780701E2863A6
:1009C000E3E0DDE902010022002300F0A1FB05D2F3
:1009D000DDE9020181F00041CDE9020124B247F2D4
:1009E000975060436F4990FBF1F80FFA88F8C8F10F
:1009F00007040027DFF8B091012C19DBDDE902AB19
:100A0000E00707D5504659463A464B4600F042FDAE
:100A100082468B466410384649463A464B4600F0BB
:100A200039FD07468946002CEAD1CDE902AB21E029
:100A300064429246DFF874B114D0E00707D55046FF
:100A400059463A464B4600F025FD82468B466410D7
:100A5000384649463A464B4600F01CFD0746894653
:100A6000002CEAD1DDE9020152465B4600F0E4FDCC
:100A7000CDE902019DF8000066280CBF08F10A00CC
:100A80000620296B4618142EA8BF132630208DF897
:100A900010000DF11104464F012E33DBDDE9020198
:100AA00000F00AFC04F1080104220A24B0FBF4F36C
:100AB00003EB830EA0EB4E00303001F8010DB3FBC9
:100AC000F4F000EB8004A3EB4403303301F8013D64
:100AD000521EEAD101F10804083E012EDCDBDDE9FB
:100AE000020100F0E9FB00F007FC02460B46DDE9DD
:100AF000020100F00FFC00223B4600F0CBFCCDE9E8
:100B00000201CBE70DF11100201A0DF111079DF83C
:100B10001110302906D1401EA8F1010817F8011F55
:100B20003029F8D09DF80010662904BF0FFA88F824
:100B300008F1010103D065290CBF012100212A6BB6
:100B40008E1836B2B042B8BF064636B2002E1CD45C
:100B50003146814204DAC85D352828BF392000D2E9
:100B60003020CA19521E00E0761E491E12F80139C3
:100B70008342F9D0392802D1C85D401CC8550029EC
:100B800003D57F1E761C08F101080FFA88F000904B
:100B900033B23A469DF83810284600F00BF80FB0F3
:100BA000BDE8F08FA0860100000024400000F03F67
:100BB00084D797412DE9F04385B00546894617460D
:100BC0001E46BDF93040D5F83080012E02DA0126EC
:100BD0000FF2982749F0200066280AD0672840F0D5
:100BE00086806FF003018C42C0F28780444580F21A
:100BF0008480641C66280CD095F83800000702D465
:100C00004645B8BFB04624B2B8EB040848BF4FF021
:100C10000008E868A96924B2012C25DA4A1C3023AF
:100C20000B54B8F1010F03DA95F83810090702D513
:100C30002E211154521CAA6118EB040FB8BFC8F141
:100C4000000424B261426962A044B045B8BF464680
:100C500036B2EE6132463946AB69181800F0FAF93F
:100C6000A8EB0600A862C6E00818A64218DA3246C9
:100C7000394600F0EFF9A9697118A961A01B6862F3
:100C8000B8F1010F03DA95F83800000705D5E868D8
:100C90002E220A54E869401CE861C5F82880AAE0C1
:100CA0002246394600F0D6F9A8692018A861361BFB
:100CB000B8F1010F03DA95F83810090704D5411C83
:100CC000A961E9682E22425436B2B045B8BF464603
:100CD00036B23246E119A869EB68C01800F0BAF9DB
:100CE000A8693018A861A8EB0600686283E0B9F132
:100CF000610F16D14FF0700918E0464504DA95F8F7
:100D00003810090758BFB046B8F1010848BF4FF086
:100D10000008B9F1670F14BF4FF045094FF065099E
:100D200004E0B9F1410F08BF4FF05009A9694A1C0E
:100D3000E86817F8013B0B54B8F1010F03DA95F896
:100D40003810090702D52E211154521CAA61B8F19E
:100D5000010F11DB761E36B2B045B8BF464636B23B
:100D600032463946AB69181800F074F9A869301892
:100D7000A861A8EB06006862A869E968471807F847
:100D8000019B002C5CBF2B2007F8010B03D52D2005
:100D900007F8010B644200260DF1080824B2012C6B
:100DA0000EDB0A22214600A800F069FD019808F830
:100DB000010B009C761C24B2012CF2DA022E06DA1A
:100DC00049F02000652804BF302007F8010B1EB948
:100DD000302007F8010B09E0012E07DB761E02A880
:100DE000305C303007F8010B012EF7DAA869E968AA
:100DF0004018381AE86195F8380000F014001028FF
:100E00000DD16869A9690818696A0818E96908189C
:100E1000A96A0818696B8842BCBF081A286205B025
:100E2000BDE8F083F8B504460D4616461F4600207F
:100E300077B116F8011BA868A047A86030B1E86A2E
:100E4000401CE86200207F1EF3D1F2BD4FF0FF305E
:100E5000F2BD0000686A6C747A4C00006E616E002E
:100E60004E414E00696E6600494E4600300010B497
:100E700050F8041B81B102681218001D50F8043BA1
:100E8000DC0744BFA9F10104E31852F8044B43F80E
:100E9000044B091FF9D1EBE710BC70470278C9B2C7
:100EA0008A421AB11CBF10F8012FF9E718BF0020C1
:100EB000704750F8041B61B150F8042BD30744BFAE
:100EC000A9F101039A18002342F8043B091FFAD143
:100ED000EFE7704700F10103810704D010F8011B10
:100EE00089B18107FAD10268B2F10131914311F061
:100EF000803F04BF50F8042FF6E710F8011B11B132
:100F000010F8011BFBE7C01A70470000C9B2830745
:100F100006D0521E22D310F8013B9942F7D11FE0B0
:100F2000083A13D302F1040241EA012141EA0141E6
:100F300050F8043B121F21BF4B40A3F1013C2CEAA7
:100F4000030C1CF0803FF3D0C9B2001F083210F828
:100F5000013B521E28BF91EA030FF8D818BF0120A9
:100F6000401E70471B4213D1094236D12AB1844634
:100F7000B0FBF2F002FB10C2704700F087BCFCD35C
:100F80000022002370470B00020000210020704760
:100F9000904271EB030CF6D370B5B1FA81F4B3FA59
:100FA00083F52C1BA340C4F1200532FA05F6334328
:100FB000A2405FF00046E64002E05B085FEA3202D2
:100FC000841A71EB030524BF204629467641F4D3E9
:100FD00002000B003000002170BD012ACFD970B58E
:100FE000140C20D0B1FA81F4B2FA82F5C4F12004D5
:100FF0006419B4F12006D6D3B2405FF00044F44047
:10100000002502E052085FEA3303C61A71EB020EB4
:1010100024BF3046714664416D41F3D302000B009A
:101020002000290070BD0C46B1FBF2F102FB114516
:101030002D0445EA1045B5FBF2F402FB145580B2CD
:1010400040EA0545B5FBF2F002FB105240EA0440CD
:1010500070BD000062B38B0708D0521E11F8013B2F
:1010600000F8013B00F024808B07F6D1830740F0A5
:10107000208000BF103A07D330B4B1E83810103ADE
:10108000A0E83810F9D230BC530724BFB1E80810EB
:10109000A0E8081044BF51F8043B40F8043BD207D5
:1010A00024BF31F8022B20F8022B44BF0B780370C9
:1010B0007047083A07D3B1E80810083A40F8043BF3
:1010C00040F804CBF7D25307E4E730B4416801F0AD
:1010D0000042012143681B031B0B436004BF0368EC
:1010E000002B0ED003684468DD0F45EA44044460D9
:1010F0005B000360491EE302F4D543681B031B0B2E
:10110000436043681A434260084630BC70470000A1
:101110004FF4001C1CEB410F94BF1CEB430F09E084
:1011200041EA030C50EA4C0C52EA0C0C03D29942EF
:1011300008BF9042704714BF8B4282427047000044
:101140004FF4001C1CEB410F94BF1CEB430F09E054
:1011500041EA030C50EA4C0C52EA0C0C03D28B42CD
:1011600008BF8242704714BF994290427047000006
:1011700070B504460D466068C0F30A5040F2FF7235
:10118000904207D16068000304BF2068002818D08F
:10119000022070BD010004D12046FFF796FF012810
:1011A00067DA012D0FDB40F2FF71091A8D420AD375
:1011B0006068002847BF00202F4900202F49C4E95C
:1011C0000001012070BD4142A942616806DA2C4A43
:1011D0001140401941EA0050606053E001F00041C5
:1011E00062681203120B42F480126260401E4519BD
:1011F00005F13500352803D361600020206070BD03
:10120000002215F11F0F05DA203522686068206082
:1012100000206060684213D0521E9241D243C0F158
:10122000200325689D4055EAD2722568C54066684E
:1012300006FA03F32B432360636823FA00F060602F
:10124000606808436060B2F1004F03D80BD120788A
:10125000C00708D52068401C2060206818B9606865
:10126000401C60600EE06068884204BF206800286F
:10127000F8D1002070BD00000000F0FF0000F07FFA
:10128000FFFF0F804FF0FF3070BD0000F446400DAF
:1012900040EAC120490006D200F014F8004248BFDD
:1012A0006FF00040604700F00DF84FF000418842B9
:1012B0008CBF084640426047400D40EAC1204900CB
:1012C00080F00D8040F00040490DA1F58061491C7F
:1012D00005D4D1F11F0154BFC840C01770474FF06B
:1012E00000007047010040F10980F446404200F0E0
:1012F00005F851F000416047010000BF09D0B0FA85
:1013000080F18840C91CC1F58461090501EBD02139
:101310004005704770B44FF0004591EA030F44BF99
:101320006B4000F0B5BA00BF841A71EB030604D21B
:101330006E40001BB141121973414FF4001C1CEBAD
:10134000410F34BF7CEB430684E00C0DA4EB135635
:10135000362E7DDC012E43DC45EAC32343EA52539B
:1013600012BFD20292025B08240545EAC12141EA7C
:101370005051D2EBC020994125D407D1B0FA80F664
:1013800010FA06F164D00020203608E0B1FA81F6A8
:10139000B140C6F1200220FA02F21143B0404FEAF8
:1013A000F474B4EB465434F001064FEA74040AD8DE
:1013B000D6F50016760D04F00044F04061FA06F20E
:1013C0005040F1404840C00A40EA415021F00041FD
:1013D00028BF5FEA500550F1000044EBD12137E00F
:1013E00045EAC323DB0A45EAC121C90AB6F1200553
:1013F0000EDD42EA0242120CC5F1200603FA06F69F
:10140000EB4042EA06056D42984161F100010DE0B2
:1014100062FA06F5F240554063FA06FC82EA0C02D5
:10142000F3405A406D42904161EB030111F4801F7B
:1014300005D1641E620502D06D004041494121F48E
:101440008011430875F1004350F1000041EB045155
:1014500070BC70471CEB410F15D223F0004352EAD9
:1014600043060BD04FEA4C0CBCEB410F04D80C0DDB
:10147000661E342EB7DDEBE7801A994150EA41062B
:1014800008BF0021E4E708BF1CEB430F28BF6FF043
:101490000001DDE7B0B581EA030C0CF0004C40F22E
:1014A000FF7515EA11541DBF15EA1357AC42AF4240
:1014B00039E0E41923EA455343F48013C90241F0AB
:1014C000004141EA505EC7021100A7FB020200285A
:1014D0004FF00000EEFB01204FF00001E3FB07217D
:1014E00018BF42F00102401800214941E3FB0E0100
:1014F000A4F580640F0302D252004041494154F1E7
:1015000001046CDD470872F1004250F1000051EB1C
:101510000451A1F580115CBF41EA0C01B0BD4CEA59
:1015200005510020B0BD05EA1357AC4214BFAF42CD
:1015300041E050EA410E1CBF52EA430E02E0614610
:101540000020B0BD24423C441BD15FEA070EF6D018
:10155000090302BF01460020AEF1140EB1FA81F773
:10156000AEEB070401FA07FE0C37C7F1200100FAC1
:1015700007F7C8404EEA000E23EA455343F48013B0
:10158000A2E733F00043B3FA83F704BFB2FA82FE56
:1015900077440B3FE41BB7F1200E2FBF02FA0EF386
:1015A000BB40C7F1200E22FA0EFE38BF43EA0E03FD
:1015B000BA40641C82E750EA410E14BF52EA430E5F
:1015C0006FF000014FF4001717EB430F8ABF194665
:1015D00017EB410FB5E74CEA05510020B0BDD4F13F
:1015E0000104B4F120070FDAC4F12007520828BF24
:1015F00042F0010210FA07F501FA07F7E1BF2A43AA
:10160000E0403843E1400FE0352C98DCC7F120047E
:1016100052EA400220FA07F218BF42F0010231FA02
:1016200007F0A1400A43002172F1004250F100008E
:1016300051EB0C01B0BD0000F0B540F2FF7581EA3E
:10164000030C0CF0004C15EA11541DBF15EA13579A
:10165000AC42AF42E5E0BC41C1F31301C3F3130355
:10166000801A994143F4801304D2641E400049411A
:1016700080185941C90241EA5051B1FBF3F603FB0E
:101680001611A2FB0675D7EBC020A94102D2761E27
:1016900080185941C90241EA5051B1FBF3FE03FBE6
:1016A0001E11A2FB0E75D7EBC020A94103D2AEF1EB
:1016B000010E80185941890241EA9051760546EAA7
:1016C0008E2EB1FBF3F603FB1611A2FB0675D7EBCA
:1016D0008020A94102D2761E80185941C90241EAF0
:1016E00050514EEA060EB1FBF3F603FB1611A2FBB6
:1016F0000675D7EBC020A94102D2761E8018594149
:10170000C90241EA5051B1FBF3F703FB1711A2FBE9
:101710000735D3EBC020A94167F100070CBF004299
:1017200047F0010766F3D5274FEA1E31B80814F5D4
:10173000806412DDBD0775F1004250EB0E5051EB95
:10174000045111F5801F5CBF41EA0C01F0BD4CF063
:101750007F6141F0E0410020F0BDBD076D0840EA27
:101760000E5041F48011D4F10104B4F120060ADADC
:10177000C4F120060200E04001FA06F3E1401843FC
:10178000B24015430EE0342C13DCC6F1200445EAC8
:1017900040056D0820FA06F2154321FA06F0A14033
:1017A0000D43002175F1004250F1000051EB0C0196
:1017B000F0BD00205FEA0C01F0BDCFB992185B418B
:1017C000B3FA83F704BFB2FA82F6BF190B3FB7F141
:1017D00020062FBF02FA06F3BB40C7F1200622FA0B
:1017E00006F638BF3343BA401CB1E419641E33E730
:1017F0007F4231F00041B1FA81F404BFB0FA80F6C3
:10180000A4190B3CB4F120062FBF00FA06F1A14049
:10181000C4F1200620FA06F638BF3143A0403C1B35
:101820001AE7AC421ABF05EA1357AF4212E050EA7A
:1018300041061CBF52EA4306BFE750EA4107304663
:1018400061461CBF41EA0551F0BD52EA430C08BF96
:10185000C143F0BD00204FF4001616EB410F98BFB6
:1018600016EB430F08BF16EB410F24BFC14305E041
:1018700016EB430F0CBF61464CEA0551F0BD91FBDE
:10188000F2F303FB1211C0E900317047704700000A
:10189000841A71EB030603D2001BB1411219734184
:1018A0004FF4001C1CEB410F34BF7CEB430443E0BE
:1018B0000C0DA4EB1356352E50DC45EAC323DB0A8E
:1018C00045EAC121C912B6F120050DDD63FA05F61E
:1018D000EB4086EA0305124218BF45F00105C01827
:1018E00051F100010CD213E062FA06F5F2405540C6
:1018F000F3415A40B340F3405A408018594107D34E
:1019000049085FEA30005FEA350528BF45F0010568
:1019100001F58011420875F1004250F1000041EBE1
:10192000045170BC4FF4001C1CEB410F38BF7047D2
:101930000020090D090570471CEB410F10D252EA37
:1019400043060BD0BCEB410F05D80C0DAB43661E14
:10195000342EB5DD02E0AB438018594170BC7047AE
:1019600070BC70472DE9F04106460C46FF2501206A
:1019700000F09CFC06EB46070FF6D00817F80800AD
:1019800000F041FD4744787800280CD1002000F099
:101990003AFD002000F037FD002000F034FD00206B
:1019A00000F031FD1DE0002C09D14FF499720FF2C7
:1019B0009C710FF2907000F087FD00F084FD2068AC
:1019C000000E00F020FD2068000CC0B200F01BFDEE
:1019D0002068000AC0B200F016FD2068C0B200F016
:1019E00012FD002E03D1952000F00DFD02E02846E7
:1019F00000F009FD092604E0FF2000F004FD054683
:101A0000761E002E01D0FF2DF6D0002E08D100202A
:101A100000F04CFCFF2000F0F6FC4FF0FF3042E0FD
:101A2000B87800283ED002280ED016D20025DFF864
:101A30000407866A002E35D0FF2D33D0FF2000F03A
:101A4000E2FC0546761EF5E7280200F47F44FF20FD
:101A500000F0D9FC40EA040524E0002C09D140F252
:101A600059120FF2E8610FF2DC6000F02DFD00F07A
:101A70002AFDFF2000F0C7FC000620600646FF207C
:101A800000F0C1FC46EA004020600646FF2000F05E
:101A9000BAFC46EA002020602668FF2000F0B3FC74
:101AA000304320602846BDE8F08170B582B0DFF891
:101AB000844601206062642500E06D1EFDD100F0C7
:101AC00000FC002803D100F0EFFB012076BDDFF819
:101AD000680600F022FC00F0E5FB002000F0E6FBC9
:101AE000FF2000F090FC0A2503E0FF2000F08BFCB3
:101AF0006D1EFAD100210846FFF734FF064600208C
:101B000000F0D4FBFF2000F07EFC012E01D002206B
:101B100076BD0220607600202063642503E0322039
:101B200000F0C0FC6D1E002D6AD04FF4D5700090FF
:101B300000A90220FFF716FF0646002000F0B6FBC2
:101B4000FF2000F060FC700702D50120607604E001
:101B50000098C005C00DAA2816D000A91A20FFF7CA
:101B600001FF0646002000F0A1FBFF2000F04BFC27
:101B70000098002804D47008400001D0022076BDEF
:101B8000009810F4781F01D1052076BD002118209F
:101B9000FFF7E8FE002000F089FBFF2000F033FC97
:101BA000607E022802D14FF0804000E000200090CB
:101BB00000A91C20FFF7D6FE0646002000F076FBA9
:101BC000FF2000F020FC3046400702D50020607660
:101BD00016E0002EA3D100A91A20FFF7C3FE064687
:101BE000002000F063FBFF2000F00DFC70084000B7
:101BF00001D0022076BD0098800F00F00100206324
:101C0000002D01D1022076BD607E002818D1642508
:101C100003E0322000F046FC6D1E002D0CD00021A8
:101C20000120FFF79FFE0646002000F03FFBFF204B
:101C300000F0E9FB002EECD1002D01D1022076BD91
:101C4000204600F017F8060001D0022076BD00F013
:101C500049F804F114010720FFF784FE002801D0A1
:101C6000022076BD002000F021FBFF2000F0CBFB1E
:101C7000002076BD38B5044600210320FFF772FE30
:101C8000002827D1082500E06D1E002D22D0FF205E
:101C900000F0B9FB40F01F011F2901D1032032BD24
:101CA000FE28F1D1002505E0FF2000F0ACFB04F890
:101CB000010B6D1C102DF7D3FF2000F0A4FBFF20BB
:101CC00000F0A1FB002000F0F1FAFF2000F09BFBE8
:101CD000002032BD002000F0E9FAFF2000F093FB65
:101CE000022032BD2DE97043DFF84844E0780FF25E
:101CF0001C5900F007010FF2D44252F82110C01015
:101D000059F82000484300F008FB06464FF47A7863
:101D10000125607E002828D1607800F007010FF2CD
:101D2000CC4252F82110C01059F82000484300213D
:101D300042F210720B46FFF715F9A0FB062301FBD8
:101D4000063310461946DFF8F4230023FFF70AF99B
:101D5000A27808FB02F280186062217BC1F3820145
:101D600005FA01F14843A06207E0B6FBF8F06422EF
:101D700042436262FA214843A062607900F00F009A
:101D800005FA00F06061607AE179227A236B002B1A
:101D900009D001F00F01120202EB01414018401C72
:101DA0008002206113E0A37903F00303890001EBB3
:101DB000832111EB9211491C042200F00300A37A45
:101DC000DB0903EB400002FA00F048432061606940
:101DD0004FF40071884206D02169400A48432061CF
:101DE0004FF400706061A07B410951EA101000F0CF
:101DF0000100E06200F08FFAE16A0843E061BDE8AB
:101E0000708332B5044600A90820FFF7ABFD002817
:101E100029D1C848456A00E06D1E002D23D0FF205F
:101E200000F0F1FA40F01F011F2907D1002000F057
:101E30003DFAFF2000F0E7FA032032BDFE28EBD187
:101E40004FF40071204600F009FBFF2000F0DBFAA0
:101E5000FF2000F0D8FA002000F028FAFF2000F060
:101E6000D2FA002032BD002000F020FAFF2000F05E
:101E7000CAFA022032BD13B5044601A90A20FFF7B1
:101E800071FD00283AD1FF2000F0BDFAFE2000F0DD
:101E9000BAFA4FF40071204600F0C6FAFF2000F0B5
:101EA000B2FA0A24FF2000F0AEFA00F01F00052865
:101EB00003D02046441E0028F4D1002C07D1002076
:101EC00000F0F4F9FF2000F09EFA032016BD9948B7
:101ED000846A00E0641E002C04D0FF2000F093FA16
:101EE000FF28F7D1002000F0E1F9FF2000F08BFA85
:101EF000002C01D1022016BD002016BD002000F0EC
:101F0000D5F9FF2000F07FFA022016BDF2B5044695
:101F100000A90820FFF726FD002836D18548456A2C
:101F200000E06D1E002D30D0FF2000F06CFA064658
:101F300046F01F001F2801D10320F2BDFE2EF0D174
:101F4000002635460BE02778FF2000F05CFA784049
:101F500020702078002800D001266D1C641C4FF4EE
:101F600000708542EFD3FF2000F04DFAFF2000F013
:101F70004AFA002000F09AF9FF2000F044FA002EFF
:101F800001D00420F2BD0020F2BD0220F2BD10B548
:101F900000F0C1F9674CE16A0843E061642000E0A9
:101FA000401EFDD100F08DF9002805D102202076D9
:101FB000BDE8104000F078B9207E002816D0FFF769
:101FC00074FD002804D002280AD0032805D00AE0B6
:101FD000002020760120206210BD0120207610BD57
:101FE0000620207610BD0220207610BD2046FFF787
:101FF00041FE002801D00120207610BD10B54D4CC7
:1020000000206061206100F0AEF9FFF74EFD00286E
:1020100004D002280AD0032805D00AE00020207648
:102020000120206210BD0120207610BD0620207600
:1020300010BD0220207610BD41487047F8B5044617
:102040000E461746002C10D03A4D2869B91988421F
:102050000BD3287E00286AD1002B03D0022B41D05D
:1020600023D302E0E869002802D00320F2BD761CE9
:102070003846471E00285AD0286B002801D0314628
:1020800002E0686900FB06F12046FFF7F4FE002835
:1020900004D0022845D0032840D045E0286B002812
:1020A000E5D168698619E3E7761C3846471E0028A3
:1020B0003DD0286B002801D0314602E0686900FB62
:1020C00006F12046FFF79DFE002804D0022828D004
:1020D000032823D028E0286B0028E5D168698619F9
:1020E000E3E7761C3846471E002820D0286B0028DE
:1020F00001D0314602E0686900FB06F12046FFF797
:1021000005FF002804D002280BD0032806D00BE0DE
:10211000286B0028E5D168698619E3E70120287655
:10212000F2BD06202876F2BD02202876F2BD287E78
:10213000F2BD000020020020400D0300A086010037
:10214000300200207044617461000000443A5C5227
:1021500065706F7369746F72795C53544D33322DAF
:10216000503130375C536F6674776172655C74729E
:10217000756E6B5C5745425F66696C65735C446560
:102180006D6F5F4578616D706C655F5745425F6646
:10219000696C65735C53544D33322D503130375F69
:1021A00044656D6F536F66745F726576435C4C690E
:1021B000627261726965735C53445C73645F7370CF
:1021C000695F6D6F64652E630000000010270000DA
:1021D000A086010040420F00809698000000000099
:1021E00000000000000000000000000001000000EE
:1021F0000A00000064000000E8030000102700004F
:10220000A086010040420F00809698000000000068
:102210000A0000000C0000000D0000000F0000008C
:1022200014000000190000001E0000002300000040
:10223000280000002D0000003200000037000000E0
:102240003C0000004600000050000000400000413B
:1022500000004802044900004A00004C00004D0004
:1022600002500100510200520200580200590200BF
:102270005B00005C02015D02015E02006002006121
:10228000020062020063020064020065020066034D
:10229000016A03017700007800007A00037B0300E5
:1022A000690200000120FDE00120FBE0784A0028DF
:1022B00003D01021104600F0F3B91021104600F0B1
:1022C000EDB938B51020ADF8000004208DF80300FA
:1022D00003208DF802006E4C00A9204600F085F91D
:1022E000642000E0401EFDD11021204600F0CEF910
:1022F00005461021204600F0D3F91020ADF800006B
:102300008DF8030003208DF8020000A9204600F09C
:102310006CF9284632BD0020704710B586B00446DF
:1023200000A800F0FBF9002000E0401C082805D2BE
:1023300002990222824062439142F6D2082802D3D7
:102340004FF0FF300DE053490A884FF6C7731A402B
:1023500042EAC0020A800299022202FA00F0B1FBAE
:10236000F0F006B010BD10B586B00121152000F0C8
:1023700045FA01214FF4004000F04BFA0121464894
:1023800000F090F94FF4E050ADF8000003208DF814
:10239000020018208DF8030000A9404800F025F93C
:1023A0001020ADF8000004208DF8030003208DF804
:1023B000020000A9364800F018F90020ADF804002A
:1023C0004FF48270ADF8060000200290ADF80C00CA
:1023D0004FF40070ADF80E003820ADF8100000206A
:1023E000ADF812000720ADF814002A4C01A92046D0
:1023F00000F038FA2A48FFF790FF0121204600F04C
:102400004DFA06B010BD10B5224C0146204600F032
:1024100051FA0121204600F051FA0028F9D0204657
:1024200000F04AFAC0B210BD70B582B004460D4645
:10243000184E0EE014F8011B304600F03BFA012163
:10244000304600F03BFA0028F9D0304600F034FA6C
:1024500000902846451E0028ECD173BD70B5044697
:102460000D460C4E0EE0FF21304600F023FA01210C
:10247000304600F023FA0028F9D0304600F01CFA6C
:1024800004F8010B2846451E0028ECD170BD000061
:1024900000080140003C00400010200000100140F6
:1024A000400D030081B0002806E00099491E00910C
:1024B00000990029F9D1401E03D04FF47A710091A0
:1024C000F6E701B070477047F0B583B00C460A21BB
:1024D00000238DF80A3002AB0A25491EC9B292FBCF
:1024E000F5F606EB8607A2EB470230325A70324609
:1024F000012A0FDB491EC9B292FBF5F606EB8607EF
:10250000A2EB470230321A703246012AA4BF9B1E4A
:102510000129E2DA0346002200A80918204600F04B
:10252000E0F908B900F022FA03B0F0BD80B57349B4
:10253000884209D10121042000F076F9002104200D
:10254000BDE8044000F070B96D49884209D101210D
:10255000082000F069F900210820BDE8044000F0DF
:1025600063B96849884209D10121102000F05CF963
:1025700000211020BDE8044000F056B962498842AD
:1025800009D10121202000F04FF900212020BDE8D1
:10259000044000F049B95D49884209D10121402039
:1025A00000F042F900214020BDE8044000F03CB9B1
:1025B0005749884209D10121802000F035F90021D6
:1025C0008020BDE8044000F02FB9524988420BD169
:1025D00001214FF4807000F027F900214FF4807042
:1025E000BDE8044000F020B901BDF0B40023CC7870
:1025F00004F00F02E40601D58C7822430C88E4B283
:10260000002C1CD0046803E0482D00D106615B1C3F
:10261000082B13D2012505FA03F635460F882F4003
:10262000AF42F4D19D000F27AF40BC4302FA05F53D
:102630002C43CD78282DE7D14661E8E704600B886C
:102640004FF48074A3421FD34468002319E001258E
:1026500003F1080605FA06F635460F882F40AF420B
:102660000ED19D000F27AF40BC4302FA05F52C4365
:10267000CD78282D00D14661CD78482D00D1066156
:102680005B1C082BE3D34460F0BC704700228068D9
:1026900080B2084200D001221046704701617047A5
:1026A0004161704770B41C4A1468C0F3034583B29B
:1026B00000F44016B6F5401F06D124F0706415688A
:1026C00025F0706515600FE0C60206D5032606FAF0
:1026D00005F5AC4344F0706406E0450D2D0103FAA6
:1026E00005F5AC4344F07064002904D0400D0001AE
:1026F00003FA00F00443146070BC70470008014006
:10270000000C01400010014000140140001801407D
:10271000001C0140002001400400014070B4484901
:102720000A6802F00C02042A02D0082A03D033E01F
:10273000444A026032E00A6802F470120B6803F443
:102740008033920C0D2A01D0921C00E00622002B4F
:1027500003D13D4B5A43026020E08B6A03F480337F
:102760008C6A04F00F04641C364D002B04D1B5FBB9
:10277000F4F35A43026011E08B6AC3F303135B1C4A
:102780008E6AC6F30326B61CB5FBF3F37343B3FBA3
:10279000F4F35A43026001E02C4A02600A6802F036
:1027A000F0032B4A1B099B5C046824FA03F3436083
:1027B0000C6804F4E064240AA45CE34083600B68C2
:1027C00003F46053DB0A9B5C446824FA03F3C360A0
:1027D000096801F4404102EB9131097CB3FBF1F14E
:1027E000016170BC70471B4A0029116802D0084380
:1027F0001060704721EA000010607047164A0029F7
:10280000116802D008431060704721EA0000106090
:102810007047124A0029116802D0084310607047BF
:1028200021EA0000106070470D4A0029116802D0AB
:1028300008431060704721EA0000106070470000F4
:102840000410024040787D0100093D0000127A002A
:102850000000002014100240181002401C1002401A
:102860000C100240028802F441520B881A434B8834
:102870001A438B881A43CB881A430B891A434B8916
:102880001A438B891A43CB891A430280828B4FF2F9
:10289000FF731A408283098A0182704700290188E8
:1028A00003D041F04001018070474FF6BF721140E4
:1028B00001807047818170478089704700220089BC
:1028C000084200D0012210467047000010B50446AF
:1028D00003E014F8010B00F04CF820780028F8D140
:1028E00010BDF8B504460D4616461F4656B10FF208
:1028F0004400FFF7EBFF3046FFF7E8FF0FF244001C
:10290000FFF7E4FF2046FFF7E1FF0FF24000FFF77B
:10291000DDFF2846FFF7DAFF0FF23400FFF7D6FF9E
:102920003846FFF7D3FF0FF22C00FFF7CFFF002050
:10293000F2BD0000496E2066756E6374696F6E208B
:1029400000000000202D2D20000000003A000000B3
:1029500020000000202D2D20617373657274696F53
:102960006E206661696C65640A000000012000F059
:1029700015B810B582B0044614F1010F0AD08DF8D5
:102980000000012200A9012000F008F9012801D16E
:10299000204616BD4FF0FF3016BD0000014918203B
:1029A000ABBEFBE72600020010B586B0044601A8C6
:1029B000FFF7B4FE9948016800910299C908B1FB7C
:1029C000F4F141600121016006B010BD934800217F
:1029D000016070472DE9F84301242646FF250FF2D8
:1029E000542000F00DFA0220FFF7DEFFFFF706FB90
:1029F00062B6DFF82C82DFF82C9203E00FF264302D
:102A000000F0FEF900F00EFA1B2800F094808348D5
:102A10000068C003F6D5FFF7BAFA3046461E002814
:102A2000F0D10126FFF708FB0746387A8542E9D046
:102A3000050004D00128E1D0062872D076E078683D
:102A4000B0F5806F02D33146800A04E000214FF4D4
:102A50008062B2FBF0F03A68002902D05043810A4C
:102A600002E0B2FBF0F0810A787A002804D10FF27C
:102A7000DC1000F0C5F903E00FF2E41000F0C0F93B
:102A8000F868012803D10FF2EC1000F0B9F900202A
:102A90000090654902E00098401C00900098884230
:102AA000F9DB33461A463868411E4046FFF7C6FA3E
:102AB000002830D1D8F80000484526D00FF2D010B9
:102AC00000F09EF9F86800289CD1C8F80090002317
:102AD00032463868411E4046FFF7B0FA002808D158
:102AE000022332463868411E4046FFF7A7FA002805
:102AF00005D00FF2D01000F083F9344682E70FF2D0
:102B0000F41000F07DF900247CE70FF20C2000F0B7
:102B100077F9002476E70FF2382000F071F9344697
:102B200070E70FF2542000F06BF96BE70FF26020B2
:102B300000F066F966E772B62046BDE8F28380B51C
:102B400000F08AF939494FF4E1300860002048600C
:102B5000088188810C204881002000F02DFA0FF2B6
:102B6000442000F04DF9FFF735FF0FF25C2000F034
:102B700047F9FFF72BFF00F0FDF900214FF4E83093
:102B8000FFF731FE00214FF6FD70FFF737FE00F032
:102B900031F80128FBDBFFF7ECFEF8E7F8B50C464F
:102BA00015460026002D0DE0214F8021384600F00B
:102BB000C3FA0028F8D014F8011B384600F0B4FA24
:102BC000761C6D1EF0D13046F2BD70B50C46154630
:102BD0000026002806D04FF0FF3070BD04F8010B2E
:102BE000761C6D1E002D03D000F004F80028F5D5EA
:102BF000304670BD10B50E4804882146890609D5B7
:102C000000F096FA14F00B0102D040F0805010BD95
:102C1000C0B210BD4FF0FF3010BD000010E000E06A
:102C2000200000205AA555AAA086010054020020C9
:102C30000044004050726573732045736320666FD3
:102C40007220657869740A0D000000004D4D432024
:102C500043617264202D202564204D420A0D00003E
:102C600053442043617264202D202564204D420A84
:102C70000D0000004361726420697320577269740B
:102C8000652050726F7465637465640A0D000000FE
:102C9000546865207369676E617475726520697325
:102CA000206E6F74207772697474656E2079657414
:102CB000212057726974696E67206E6F772E2E2EF1
:102CC0000A0D0000546865207369676E617475723F
:102CD000652077726974696E67206F7220766572FD
:102CE000696679696E67206661696C6564210A0DA1
:102CF00000000000546865207369676E6174757226
:102D000065207772697474656E207375636365738B
:102D10007366756C210A0D00546865207369676ECF
:102D2000617475726520697320616C726561647984
:102D3000207772697474656E212052656164696ED2
:102D400067207375636365737366756C210A0D0084
:102D50004361726420492F4F206572726F720A0DB1
:102D60000000000043617264206E6F742072656120
:102D700064790A0D000000004361726420756E6B77
:102D80006E6F776E206572726F720A0D0000000020
:102D9000506C732C20496E736572742043617264A9
:102DA0000A0D00000C4F4C494D45582053544D33EB
:102DB0003250313037202D2053442063617264201B
:102DC00064656D6F0A0D00005344206361726420D6
:102DD00064656D6F2069732066696E6973686564E8
:102DE0002120507265737320627574746F6E207445
:102DF0006F2073656E64206563686F210D0A0000A3
:102E00000EB400B582B003A9009100AB02460121C7
:102E1000034878440A30FDF79BF906BC5DF810FBC7
:102E2000BB03000080B50B49086810F1010F03D007
:102E30004FF0FF320A6002BD012200A90020FFF717
:102E4000C4FE012802D19DF8000002BD4FF0FF3002
:102E500002BD00001C0000204148016841F0010152
:102E6000016041683F4A1140416001683E4A11409B
:102E70000160016821F480210160416821F4FE01B4
:102E80004160016821F0A05101604FF47F01816031
:102E90000021C16200BF82B0002001900090304844
:102EA000016841F480310160016801F40031009152
:102EB0000199491C01910099002903D10199B1F5AB
:102EC000A06FF1D10168490C01F001010091009956
:102ED000012943D125490A6842F010020A600A68B4
:102EE000920892000A600A6842F002020A60416891
:102EF000416041684160416841F480614160C16A5C
:102F00001B4A1140C162C16A41F4833141F044015E
:102F1000C162016841F08061016001680901FCD56E
:102F2000416821F47C114160416841F4E81141603D
:102F3000016841F08071016001688901FCD5416838
:102F4000890889004160416841F00201416041689F
:102F500001F00C010829FAD102B07047FEE7000029
:102F6000001002400000FFF0FFFFF6FE00200240CC
:102F700000F0FEFF80B53848FFF7D8FA3748FFF772
:102F8000D5FA3748FFF7D2FA3648FFF7CFFA364876
:102F9000FFF7CCFA3548FFF7C9FA4FF69F70ADF846
:102FA000000004208DF8030003208DF8020000A922
:102FB0002F48FFF71AFB01BDF8B506460C4635460B
:102FC00001210FF2C00050F8250040F00100FFF78A
:102FD00015FC002E04D101214FF40030FFF719FC3D
:102FE0000FF2A40030F81500ADF8000018208DF89D
:102FF000030003208DF802001E4E06EB850700A992
:103000007868FFF7F2FA0FF2840030F81500ADF897
:10301000000004208DF8030000A97868FFF7E5FAA6
:1030200056F825001449884204D101211348FFF7BE
:1030300039FB06E01249884203D101210820FFF73D
:1030400031FB214656F8250000F022F8012156F800
:10305000250000F05DF8F1BD00080140000C0140C2
:103060000010014000180140001C014000200140F8
:1030700000140140140000200048004030001400FB
:10308000004400402000000020000000400000003C
:1030900030B585B004460D46208A4CF6FF710840D5
:1030A000E98808432082A0894EF6F3110840A988D8
:1030B00008432989084369890843A081A08A4FF6FB
:1030C000FF410840A9890843A08200A8FFF726FB1A
:1030D0000E48844201D1039800E002981921484328
:1030E00029688900B0FBF1F06421B0FBF1F2120114
:1030F000130901FB130000013230B0FBF1F000F0C6
:103100000F001043208105B030BD000000380140A1
:103110000029818903D041F40051818170474DF627
:10312000FF72114081817047C905C90D81807047C8
:103130008088C005C00D704700220088084200D07A
:10314000012210467047000010B5084979441C312F
:10315000074C7C441A34A14206D0081D0A68511855
:1031600088470146A142F8D110BD00BF0800000009
:10317000280000003FDDFFFF440200002000002087
:1031800000000000EBDCFFFF2000000088010000D1
:1031900000000020000000007047FEE7FEE7FEE7A9
:1031A000FEE77047704770477047704770470000F0
:1031B00000F009F8002801D0FFF7C6FF0020FFF754
:1031C000BEFC00F002F80120704700F001B80000DA
:1031D00007463846FFF7E2FBFBE738B504460D46E5
:1031E0002846FFF7C6FBA84218BF0024204632BD80
:1031F000C046C046C046C046FFF7DAFFFFF7CCBF67
:10320000FFF7CBBFFFF7CABFFFF7C9BFFFF7C8BFC4
:10321000FFF7C7BFFFF7C6BFFFF7C5BFFFF7C4BFC4
:10322000FFF7FEBFFFF7FEBFFFF7FEBFFFF7FEBFD2
:10323000FFF7FEBFFFF7FEBFFFF7FEBFFFF7FEBFC2
:10324000FFF7FEBFFFF7FEBFFFF7FEBFFFF7FEBFB2
:10325000FFF7FEBFFFF7FEBFFFF7FEBFFFF7FEBFA2
:10326000FFF7FEBFFFF7FEBFFFF7FEBFFFF7FEBF92
:10327000FFF7FEBFFFF7FEBFFFF7FEBFFFF7FEBF82
:10328000FFF7FEBFFFF7FEBFFFF7FEBFFFF7FEBF72
:10329000FFF78BBFFFF7FEBFFFF7FEBFFFF7FEBFD5
:1032A000FFF7FEBFFFF7FEBFFFF7FEBFFFF7FEBF52
:1032B000FFF7FEBFFFF7FEBFFFF7FEBFFFF7FEBF42
:1032C000FFF7FEBFFFF7FEBFFFF7FEBFFFF7FEBF32
:1032D000FFF7FEBFFFF7FEBFFFF7FEBFFFF7FEBF22
:1032E000FFF7FEBFFFF7FEBFFFF7FEBFFFF7FEBF12
:1032F000FFF7FEBFFFF7FEBFFFF7FEBFFFF7FEBF02
:10330000FFF7FEBFFFF7FEBFFFF7FEBFFFF7FEBFF1
:10331000FFF74CBF00000000010203040102030498
:103320000607080902040608004400400014014092
:04333000FFFFFFFF9D
:04000005080031F1CD
:00000001FF
